:1000000010C028C027C026C025C024C023C022C0DD
:1000100021C020C01FC01FC01DC01CC01BC01AC0F3
:1000200019C011241FBECFEDCDBF10E0A0E6B0E097
:10003000EEE4F1E002C005900D92A836B107D9F7C1
:1000400010E0A8E6B0E001C01D92AB36B107E1F7C1
:100050001DD07BC0D5CF1F920F920FB60F921124E7
:100060008F939F9384E682BF8BB3909168008E7FBD
:10007000892B8BBB80916A00816080936A009F917D
:100080008F910F900FBE0F901F901895F8941092BB
:100090006A0010BE85E083BF89B7816089BFD09AAE
:1000A0001092690010926800789430E041E08091ED
:1000B0006A0080FFFCCF832F90E0019660E370E040
:1000C0001DD0382F10926800E82FE695E695E6954A
:1000D000F0E0E05AFF4F808190E0232F277002C0AC
:1000E000959587952A95E2F780FF02C040936800B6
:1000F00080916A008E7F80936A00D9CF97FB092E8A
:1001000007260AD077FD04D00CD006D000201AF4C0
:10011000709561957F4F0895F6F7909581959F4F63
:100120000895AA1BBB1B51E107C0AA1FBB1FA6173E
:10013000B70710F0A61BB70B881F991F5A95A9F790
:0E01400080959095BC01CD010895F894FFCFF5
:08014E00AADEADBEEFFF640064
:00000001FF
