:1000000009C021C020C01FC01EC01DC01DC01BC014
:100010001AC019C011241FBECFE9CDBF10E0A0E661
:10002000B0E0EAE2F1E002C005900D92A636B10719
:10003000D9F710E0A6E6B0E001C01D92A936B107DD
:10004000E1F713D070C0DCCF1F920F920FB60F9262
:1000500011248F93809168008160809368008F9154
:100060000F900FBE0F901F901895F89482E08FBDEF
:1000700083E083BF86E986BF84E089BF80E187BBD8
:10008000109268001092670010926600789420E049
:100090008091680080FFFCCF822F90E0019660E3A2
:1000A00070E01AD0282FE82FE695E695E695F0E067
:1000B000E05AFF4F8081922F977001C0880F9A9568
:1000C000EAF787FF02C0C49A01C0C4988091680013
:1000D0008E7F80936800DCCF97FB092E07260AD01D
:1000E00077FD04D00CD006D000201AF470956195ED
:1000F0007F4F0895F6F7909581959F4F0895AA1B1D
:10010000BB1B51E107C0AA1FBB1FA617B70710F002
:10011000A61BB70B881F991F5A95A9F78095909534
:0A012000BC01CD010895F894FFCF53
:06012A00AADEADBEEF00ED
:00000001FF
