:1000000012C02AC029C028C027C026C026C024C0CC
:1000100023C022C021C020C01FC01EC01DC01CC0E4
:100020001BC01AC019C011241FBECFEDCDBF10E0F8
:10003000A0E6B0E0E2E5F1E002C005900D92A8363E
:10004000B107D9F710E0A8E6B0E001C01D92AB36C9
:10005000B107E1F71DD07BC0D3CF1F920F920FB62F
:100060000F9211248F939F9386E082BF82B3909169
:1000700068008F7B892B82BB80916A0081608093AE
:100080006A009F918F910F900FBE0F901F9018954F
:10009000F89410926A0010BE83E083BF89B7826033
:1000A00089BF8E9A1092690010926800789430E0AF
:1000B00040E480916A0080FFFCCF832F90E001969E
:1000C00060E370E01DD0382F10926800E82FE695AD
:1000D000E695E695F0E0E05AFF4F808190E0232F0F
:1000E000277002C0959587952A95E2F780FF02C098
:1000F0004093680080916A008E7F80936A00D9CF18
:1001000097FB092E07260AD077FD04D00CD006D025
:1001100000201AF4709561957F4F0895F6F7909539
:1001200081959F4F0895AA1BBB1B51E107C0AA1FD1
:10013000BB1FA617B70710F0A61BB70B881F991F88
:100140005A95A9F780959095BC01CD010895F89432
:02015000FFCFDF
:08015200AADEADBEEFFF0600BE
:00000001FF
